{"abi":[{"type":"constructor","inputs":[{"name":"owner_","type":"address","internalType":"address"}],"stateMutability":"nonpayable"},{"type":"function","name":"getModuleMetadataURI","inputs":[],"outputs":[{"name":"","type":"string","internalType":"string"}],"stateMutability":"view"},{"type":"function","name":"metadataURI","inputs":[],"outputs":[{"name":"","type":"string","internalType":"string"}],"stateMutability":"view"},{"type":"function","name":"owner","inputs":[],"outputs":[{"name":"","type":"address","internalType":"address"}],"stateMutability":"view"},{"type":"function","name":"renounceOwnership","inputs":[],"outputs":[],"stateMutability":"nonpayable"},{"type":"function","name":"setModuleMetadataURI","inputs":[{"name":"_metadataURI","type":"string","internalType":"string"}],"outputs":[],"stateMutability":"nonpayable"},{"type":"function","name":"supportsInterface","inputs":[{"name":"interfaceID","type":"bytes4","internalType":"bytes4"}],"outputs":[{"name":"","type":"bool","internalType":"bool"}],"stateMutability":"pure"},{"type":"function","name":"transferOwnership","inputs":[{"name":"newOwner","type":"address","internalType":"address"}],"outputs":[],"stateMutability":"nonpayable"},{"type":"event","name":"OwnershipTransferred","inputs":[{"name":"previousOwner","type":"address","indexed":true,"internalType":"address"},{"name":"newOwner","type":"address","indexed":true,"internalType":"address"}],"anonymous":false}],"bytecode":{"object":"0x608060405234801561001057600080fd5b5060405161078a38038061078a83398101604081905261002f91610097565b61003833610047565b61004181610047565b506100c7565b600080546001600160a01b038381166001600160a01b0319831681178455604051919092169283917f8be0079c531659141344cd1fd0a4f28419497f9722a3daafe3b4186f6b6457e09190a35050565b6000602082840312156100a957600080fd5b81516001600160a01b03811681146100c057600080fd5b9392505050565b6106b4806100d66000396000f3fe608060405234801561001057600080fd5b506004361061007d5760003560e01c8063715018a61161005b578063715018a6146101145780638da5cb5b1461011c578063ce90d52e14610137578063f2fde38b1461013f57600080fd5b806301ffc9a71461008257806303ee438c146100ea578063681591c1146100ff575b600080fd5b6100d56100903660046103c6565b604080516a4c454e535f4d4f44554c4560a81b6020808301919091528251600b818403018152602b90920190925280519101206001600160e01b031991821691161490565b60405190151581526020015b60405180910390f35b6100f2610152565b6040516100e191906103f7565b61011261010d36600461045b565b6101e0565b005b6101126101f8565b6000546040516001600160a01b0390911681526020016100e1565b6100f261020c565b61011261014d36600461050c565b61029e565b6001805461015f90610535565b80601f016020809104026020016040519081016040528092919081815260200182805461018b90610535565b80156101d85780601f106101ad576101008083540402835291602001916101d8565b820191906000526020600020905b8154815290600101906020018083116101bb57829003601f168201915b505050505081565b6101e861031c565b60016101f482826105be565b5050565b61020061031c565b61020a6000610376565b565b60606001805461021b90610535565b80601f016020809104026020016040519081016040528092919081815260200182805461024790610535565b80156102945780601f1061026957610100808354040283529160200191610294565b820191906000526020600020905b81548152906001019060200180831161027757829003601f168201915b5050505050905090565b6102a661031c565b6001600160a01b0381166103105760405162461bcd60e51b815260206004820152602660248201527f4f776e61626c653a206e6577206f776e657220697320746865207a65726f206160448201526564647265737360d01b60648201526084015b60405180910390fd5b61031981610376565b50565b6000546001600160a01b0316331461020a5760405162461bcd60e51b815260206004820181905260248201527f4f776e61626c653a2063616c6c6572206973206e6f7420746865206f776e65726044820152606401610307565b600080546001600160a01b038381166001600160a01b0319831681178455604051919092169283917f8be0079c531659141344cd1fd0a4f28419497f9722a3daafe3b4186f6b6457e09190a35050565b6000602082840312156103d857600080fd5b81356001600160e01b0319811681146103f057600080fd5b9392505050565b600060208083528351808285015260005b8181101561042457858101830151858201604001528201610408565b506000604082860101526040601f19601f8301168501019250505092915050565b634e487b7160e01b600052604160045260246000fd5b60006020828403121561046d57600080fd5b813567ffffffffffffffff8082111561048557600080fd5b818401915084601f83011261049957600080fd5b8135818111156104ab576104ab610445565b604051601f8201601f19908116603f011681019083821181831017156104d3576104d3610445565b816040528281528760208487010111156104ec57600080fd5b826020860160208301376000928101602001929092525095945050505050565b60006020828403121561051e57600080fd5b81356001600160a01b03811681146103f057600080fd5b600181811c9082168061054957607f821691505b60208210810361056957634e487b7160e01b600052602260045260246000fd5b50919050565b601f8211156105b957600081815260208120601f850160051c810160208610156105965750805b601f850160051c820191505b818110156105b5578281556001016105a2565b5050505b505050565b815167ffffffffffffffff8111156105d8576105d8610445565b6105ec816105e68454610535565b8461056f565b602080601f83116001811461062157600084156106095750858301515b600019600386901b1c1916600185901b1785556105b5565b600085815260208120601f198616915b8281101561065057888601518255948401946001909101908401610631565b508582101561066e5787850151600019600388901b60f8161c191681555b5050505050600190811b0190555056fea2646970667358221220df1020b123417df2fb56e0e7c958063a48808f96fe23a0b041250a831301d40364736f6c63430008140033","linkReferences":{}},"methodIdentifiers":{"getModuleMetadataURI()":"ce90d52e","metadataURI()":"03ee438c","owner()":"8da5cb5b","renounceOwnership()":"715018a6","setModuleMetadataURI(string)":"681591c1","supportsInterface(bytes4)":"01ffc9a7","transferOwnership(address)":"f2fde38b"},"id":24}