{"abi":[{"type":"constructor","inputs":[{"name":"lensHubProxyContract","type":"address","internalType":"address"},{"name":"moduleOwner","type":"address","internalType":"address"}],"stateMutability":"nonpayable"},{"type":"function","name":"HUB","inputs":[],"outputs":[{"name":"","type":"address","internalType":"address"}],"stateMutability":"view"},{"type":"function","name":"getModuleMetadataURI","inputs":[],"outputs":[{"name":"","type":"string","internalType":"string"}],"stateMutability":"view"},{"type":"function","name":"giveawayInfos","inputs":[{"name":"pubId","type":"uint256","internalType":"uint256"}],"outputs":[{"name":"","type":"tuple","internalType":"struct Types.GiveawayInfos","components":[{"name":"rewardCurrency","type":"address","internalType":"address"},{"name":"rewardAmount","type":"uint256","internalType":"uint256"},{"name":"usersRegistered","type":"address[]","internalType":"address[]"},{"name":"giveawayClosed","type":"bool","internalType":"bool"}]}],"stateMutability":"view"},{"type":"function","name":"initializePublicationAction","inputs":[{"name":"","type":"uint256","internalType":"uint256"},{"name":"pubId","type":"uint256","internalType":"uint256"},{"name":"","type":"address","internalType":"address"},{"name":"data","type":"bytes","internalType":"bytes"}],"outputs":[{"name":"","type":"bytes","internalType":"bytes"}],"stateMutability":"nonpayable"},{"type":"function","name":"metadataURI","inputs":[],"outputs":[{"name":"","type":"string","internalType":"string"}],"stateMutability":"view"},{"type":"function","name":"owner","inputs":[],"outputs":[{"name":"","type":"address","internalType":"address"}],"stateMutability":"view"},{"type":"function","name":"processPublicationAction","inputs":[{"name":"params","type":"tuple","internalType":"struct Types.ProcessActionParams","components":[{"name":"publicationActedProfileId","type":"uint256","internalType":"uint256"},{"name":"publicationActedId","type":"uint256","internalType":"uint256"},{"name":"actorProfileId","type":"uint256","internalType":"uint256"},{"name":"actorProfileOwner","type":"address","internalType":"address"},{"name":"transactionExecutor","type":"address","internalType":"address"},{"name":"referrerProfileIds","type":"uint256[]","internalType":"uint256[]"},{"name":"referrerPubIds","type":"uint256[]","internalType":"uint256[]"},{"name":"referrerPubTypes","type":"uint8[]","internalType":"enum Types.PublicationType[]"},{"name":"actionModuleData","type":"bytes","internalType":"bytes"}]}],"outputs":[{"name":"","type":"bytes","internalType":"bytes"}],"stateMutability":"nonpayable"},{"type":"function","name":"renounceOwnership","inputs":[],"outputs":[],"stateMutability":"nonpayable"},{"type":"function","name":"setModuleMetadataURI","inputs":[{"name":"_metadataURI","type":"string","internalType":"string"}],"outputs":[],"stateMutability":"nonpayable"},{"type":"function","name":"supportsInterface","inputs":[{"name":"interfaceID","type":"bytes4","internalType":"bytes4"}],"outputs":[{"name":"","type":"bool","internalType":"bool"}],"stateMutability":"pure"},{"type":"function","name":"transferOwnership","inputs":[{"name":"newOwner","type":"address","internalType":"address"}],"outputs":[],"stateMutability":"nonpayable"},{"type":"event","name":"OwnershipTransferred","inputs":[{"name":"previousOwner","type":"address","indexed":true,"internalType":"address"},{"name":"newOwner","type":"address","indexed":true,"internalType":"address"}],"anonymous":false},{"type":"error","name":"AddressEmptyCode","inputs":[{"name":"target","type":"address","internalType":"address"}]},{"type":"error","name":"AddressInsufficientBalance","inputs":[{"name":"account","type":"address","internalType":"address"}]},{"type":"error","name":"FailedInnerCall","inputs":[]},{"type":"error","name":"NotHub","inputs":[]},{"type":"error","name":"SafeERC20FailedOperation","inputs":[{"name":"token","type":"address","internalType":"address"}]}],"bytecode":{"object":"0x60a06040523480156200001157600080fd5b506040516200150d3803806200150d833981016040819052620000349162000166565b6001600160a01b038216608052806200004d3362000087565b620000588162000087565b50600380546001600160a01b0319166001600160a01b0384161790556200007f30620000d7565b50506200019e565b600080546001600160a01b038381166001600160a01b0319831681178455604051919092169283917f8be0079c531659141344cd1fd0a4f28419497f9722a3daafe3b4186f6b6457e09190a35050565b6040516001600160a01b0382166024820152620001259060440160408051601f198184030181529190526020810180516001600160e01b0390811663161765e160e11b179091526200012816565b50565b80516a636f6e736f6c652e6c6f67602083016000808483855afa5050505050565b80516001600160a01b03811681146200016157600080fd5b919050565b600080604083850312156200017a57600080fd5b620001858362000149565b9150620001956020840162000149565b90509250929050565b608051611345620001c860003960008181610178015281816102b501526104ed01526113456000f3fe608060405234801561001057600080fd5b50600436106100a95760003560e01c80637d418be1116100715780637d418be11461011b5780638da5cb5b1461013b57806390ce6e0814610160578063a4c52b8614610173578063ce90d52e1461019a578063f2fde38b146101a257600080fd5b806301ffc9a7146100ae57806303ee438c146100d65780630b960220146100eb578063681591c1146100fe578063715018a614610113575b600080fd5b6100c16100bc366004610dc5565b6101b5565b60405190151581526020015b60405180910390f35b6100de61021a565b6040516100cd9190610e3f565b6100de6100f9366004610e67565b6102a8565b61011161010c366004610f13565b6103da565b005b6101116103f2565b61012e610129366004610fc4565b610406565b6040516100cd9190610fdd565b6000546001600160a01b03165b6040516001600160a01b0390911681526020016100cd565b6100de61016e366004611061565b6104e0565b6101487f000000000000000000000000000000000000000000000000000000000000000081565b6100de610997565b6101116101b036600461109d565b610a29565b60006001600160e01b0319821663136b0d8560e31b14806102145750604080516a4c454e535f4d4f44554c4560a81b6020808301919091528251600b818403018152602b90920190925280519101206001600160e01b03198381169116145b92915050565b60018054610227906110ba565b80601f0160208091040260200160405190810160405280929190818152602001828054610253906110ba565b80156102a05780601f10610275576101008083540402835291602001916102a0565b820191906000526020600020905b81548152906001019060200180831161028357829003601f168201915b505050505081565b6060336001600160a01b037f000000000000000000000000000000000000000000000000000000000000000016146102f3576040516313bd2e8360e31b815260040160405180910390fd5b600080610302848601866110f4565b604080516080810182526001600160a01b0384811682526020808301858152845160008082528184018752858701918252606086018190528f81526002808552969020855181546001600160a01b0319169516949094178455905160018401555180519698509496509194909361037d938501920190610d4b565b50606091909101516003909101805460ff1916911515919091179055604080516020601f8701819004810282018101909252858152908690869081908401838280828437600092019190915250929b9a5050505050505050505050565b6103e2610aa2565b60016103ee828261116e565b5050565b6103fa610aa2565b6104046000610afc565b565b61043c604051806080016040528060006001600160a01b0316815260200160008152602001606081526020016000151581525090565b600082815260026020818152604092839020835160808101855281546001600160a01b031681526001820154818401529281018054855181850281018501875281815294959294928601938301828280156104c057602002820191906000526020600020905b81546001600160a01b031681526001909101906020018083116104a2575b50505091835250506003919091015460ff16151560209091015292915050565b6060336001600160a01b037f0000000000000000000000000000000000000000000000000000000000000000161461052b576040516313bd2e8360e31b815260040160405180910390fd5b60208083013560009081526002909152604090206003015460ff16156105915760405162461bcd60e51b8152602060048201526016602482015275151a194819da5d99585dd85e481a5cc818db1bdcd95960521b60448201526064015b60405180910390fd5b60006105a161010084018461122e565b8101906105ae9190610fc4565b90506105c060a084016080850161109d565b6003546040516331a9108f60e11b8152600481018490526001600160a01b039283169290911690636352211e90602401602060405180830381865afa15801561060d573d6000803e3d6000fd5b505050506040513d601f19601f82011682018060405250810190610631919061127c565b6001600160a01b0316146106af576040805162461bcd60e51b81526020600482015260248101919091527f546865207472616e73616374696f6e4578656375746f7220646f65736e27742060448201527f6f776e207468652070726f66696c654964206f66207468652073656e646572206064820152608401610588565b6003546040516331a9108f60e11b81528435600482015260009182916001600160a01b0390911690636352211e90602401602060405180830381865afa1580156106fd573d6000803e3d6000fd5b505050506040513d601f19601f82011682018060405250810190610721919061127c565b90506001600160a01b03811661073d60a087016080880161109d565b6001600160a01b031614610882576003546040516347720ebb60e01b815260048101859052863560248201526001600160a01b03909116906347720ebb90604401602060405180830381865afa15801561079b573d6000803e3d6000fd5b505050506040513d601f19601f820116820180604052508101906107bf9190611299565b6108255760405162461bcd60e51b815260206004820152603160248201527f5468652073656e646572206973206e6f7420666f6c6c6f77696e672074686520604482015270383ab13634b1b0ba34b7b71037bbb732b960791b6064820152608401610588565b6020808601356000908152600291829052604090200161084b60a087016080880161109d565b81546001810183556000928352602090922090910180546001600160a01b0319166001600160a01b0390921691909117905561094c565b6020808601356000908152600291829052604090200180546442b6b23f9491906108ac90836112bb565b815481106108bc576108bc6112dd565b600091825260208083209091015488820135835260029091526040909120546001600160a01b039182169450166109276108fc6080890160608a0161109d565b6020808a01356000908152600290915260409020600101546001600160a01b03841691908790610b4c565b50506020808601356000908152600290915260409020600301805460ff191660011790555b60208581013560009081526002808352604091829020015481516001600160a01b03861693810193909352908201526060016040516020818303038152906040529350505050919050565b6060600180546109a6906110ba565b80601f01602080910402602001604051908101604052809291908181526020018280546109d2906110ba565b8015610a1f5780601f106109f457610100808354040283529160200191610a1f565b820191906000526020600020905b815481529060010190602001808311610a0257829003601f168201915b5050505050905090565b610a31610aa2565b6001600160a01b038116610a965760405162461bcd60e51b815260206004820152602660248201527f4f776e61626c653a206e6577206f776e657220697320746865207a65726f206160448201526564647265737360d01b6064820152608401610588565b610a9f81610afc565b50565b6000546001600160a01b031633146104045760405162461bcd60e51b815260206004820181905260248201527f4f776e61626c653a2063616c6c6572206973206e6f7420746865206f776e65726044820152606401610588565b600080546001600160a01b038381166001600160a01b0319831681178455604051919092169283917f8be0079c531659141344cd1fd0a4f28419497f9722a3daafe3b4186f6b6457e09190a35050565b604080516001600160a01b0385811660248301528416604482015260648082018490528251808303909101815260849091019091526020810180516001600160e01b03166323b872dd60e01b179052610ba6908590610bac565b50505050565b6000610bc16001600160a01b03841683610c14565b90508051600014158015610be6575080806020019051810190610be49190611299565b155b15610c0f57604051635274afe760e01b81526001600160a01b0384166004820152602401610588565b505050565b6060610c2283836000610c29565b9392505050565b606081471015610c4e5760405163cd78605960e01b8152306004820152602401610588565b600080856001600160a01b03168486604051610c6a91906112f3565b60006040518083038185875af1925050503d8060008114610ca7576040519150601f19603f3d011682016040523d82523d6000602084013e610cac565b606091505b5091509150610cbc868383610cc6565b9695505050505050565b606082610cdb57610cd682610d22565b610c22565b8151158015610cf257506001600160a01b0384163b155b15610d1b57604051639996b31560e01b81526001600160a01b0385166004820152602401610588565b5080610c22565b805115610d325780518082602001fd5b604051630a12f52160e11b815260040160405180910390fd5b828054828255906000526020600020908101928215610da0579160200282015b82811115610da057825182546001600160a01b0319166001600160a01b03909116178255602090920191600190910190610d6b565b50610dac929150610db0565b5090565b5b80821115610dac5760008155600101610db1565b600060208284031215610dd757600080fd5b81356001600160e01b031981168114610c2257600080fd5b60005b83811015610e0a578181015183820152602001610df2565b50506000910152565b60008151808452610e2b816020860160208601610def565b601f01601f19169290920160200192915050565b602081526000610c226020830184610e13565b6001600160a01b0381168114610a9f57600080fd5b600080600080600060808688031215610e7f57600080fd5b85359450602086013593506040860135610e9881610e52565b9250606086013567ffffffffffffffff80821115610eb557600080fd5b818801915088601f830112610ec957600080fd5b813581811115610ed857600080fd5b896020828501011115610eea57600080fd5b9699959850939650602001949392505050565b634e487b7160e01b600052604160045260246000fd5b600060208284031215610f2557600080fd5b813567ffffffffffffffff80821115610f3d57600080fd5b818401915084601f830112610f5157600080fd5b813581811115610f6357610f63610efd565b604051601f8201601f19908116603f01168101908382118183101715610f8b57610f8b610efd565b81604052828152876020848701011115610fa457600080fd5b826020860160208301376000928101602001929092525095945050505050565b600060208284031215610fd657600080fd5b5035919050565b602080825282516001600160a01b03908116838301528382015160408085019190915284015160806060850152805160a08501819052600093929183019190849060c08701905b8083101561104657845184168252938501936001929092019190850190611024565b50606088015180151560808901529450979650505050505050565b60006020828403121561107357600080fd5b813567ffffffffffffffff81111561108a57600080fd5b82016101208185031215610c2257600080fd5b6000602082840312156110af57600080fd5b8135610c2281610e52565b600181811c908216806110ce57607f821691505b6020821081036110ee57634e487b7160e01b600052602260045260246000fd5b50919050565b6000806040838503121561110757600080fd5b823561111281610e52565b946020939093013593505050565b601f821115610c0f57600081815260208120601f850160051c810160208610156111475750805b601f850160051c820191505b8181101561116657828155600101611153565b505050505050565b815167ffffffffffffffff81111561118857611188610efd565b61119c8161119684546110ba565b84611120565b602080601f8311600181146111d157600084156111b95750858301515b600019600386901b1c1916600185901b178555611166565b600085815260208120601f198616915b82811015611200578886015182559484019460019091019084016111e1565b508582101561121e5787850151600019600388901b60f8161c191681555b5050505050600190811b01905550565b6000808335601e1984360301811261124557600080fd5b83018035915067ffffffffffffffff82111561126057600080fd5b60200191503681900382131561127557600080fd5b9250929050565b60006020828403121561128e57600080fd5b8151610c2281610e52565b6000602082840312156112ab57600080fd5b81518015158114610c2257600080fd5b6000826112d857634e487b7160e01b600052601260045260246000fd5b500690565b634e487b7160e01b600052603260045260246000fd5b60008251611305818460208701610def565b919091019291505056fea264697066735822122059e3cc397463dd0973482f5be8d19e534f3884a9bce2b8d8405bbd01a1f62d4464736f6c63430008140033","linkReferences":{}},"methodIdentifiers":{"HUB()":"a4c52b86","getModuleMetadataURI()":"ce90d52e","giveawayInfos(uint256)":"7d418be1","initializePublicationAction(uint256,uint256,address,bytes)":"0b960220","metadataURI()":"03ee438c","owner()":"8da5cb5b","processPublicationAction((uint256,uint256,uint256,address,address,uint256[],uint256[],uint8[],bytes))":"90ce6e08","renounceOwnership()":"715018a6","setModuleMetadataURI(string)":"681591c1","supportsInterface(bytes4)":"01ffc9a7","transferOwnership(address)":"f2fde38b"},"id":35}