{"abi":[{"type":"constructor","inputs":[{"name":"lensHubProxyContract","type":"address","internalType":"address"},{"name":"lensGiveawayContract","type":"address","internalType":"address"},{"name":"moduleOwner","type":"address","internalType":"address"}],"stateMutability":"nonpayable"},{"type":"function","name":"HUB","inputs":[],"outputs":[{"name":"","type":"address","internalType":"address"}],"stateMutability":"view"},{"type":"function","name":"getModuleMetadataURI","inputs":[],"outputs":[{"name":"","type":"string","internalType":"string"}],"stateMutability":"view"},{"type":"function","name":"initMessages","inputs":[{"name":"profileId","type":"uint256","internalType":"uint256"},{"name":"pubId","type":"uint256","internalType":"uint256"}],"outputs":[{"name":"","type":"string","internalType":"string"}],"stateMutability":"view"},{"type":"function","name":"initializePublicationAction","inputs":[{"name":"profileId","type":"uint256","internalType":"uint256"},{"name":"pubId","type":"uint256","internalType":"uint256"},{"name":"","type":"address","internalType":"address"},{"name":"data","type":"bytes","internalType":"bytes"}],"outputs":[{"name":"","type":"bytes","internalType":"bytes"}],"stateMutability":"nonpayable"},{"type":"function","name":"metadataURI","inputs":[],"outputs":[{"name":"","type":"string","internalType":"string"}],"stateMutability":"view"},{"type":"function","name":"owner","inputs":[],"outputs":[{"name":"","type":"address","internalType":"address"}],"stateMutability":"view"},{"type":"function","name":"processPublicationAction","inputs":[{"name":"params","type":"tuple","internalType":"struct Types.ProcessActionParams","components":[{"name":"publicationActedProfileId","type":"uint256","internalType":"uint256"},{"name":"publicationActedId","type":"uint256","internalType":"uint256"},{"name":"actorProfileId","type":"uint256","internalType":"uint256"},{"name":"actorProfileOwner","type":"address","internalType":"address"},{"name":"transactionExecutor","type":"address","internalType":"address"},{"name":"referrerProfileIds","type":"uint256[]","internalType":"uint256[]"},{"name":"referrerPubIds","type":"uint256[]","internalType":"uint256[]"},{"name":"referrerPubTypes","type":"uint8[]","internalType":"enum Types.PublicationType[]"},{"name":"actionModuleData","type":"bytes","internalType":"bytes"}]}],"outputs":[{"name":"","type":"bytes","internalType":"bytes"}],"stateMutability":"nonpayable"},{"type":"function","name":"renounceOwnership","inputs":[],"outputs":[],"stateMutability":"nonpayable"},{"type":"function","name":"setModuleMetadataURI","inputs":[{"name":"_metadataURI","type":"string","internalType":"string"}],"outputs":[],"stateMutability":"nonpayable"},{"type":"function","name":"supportsInterface","inputs":[{"name":"interfaceID","type":"bytes4","internalType":"bytes4"}],"outputs":[{"name":"","type":"bool","internalType":"bool"}],"stateMutability":"pure"},{"type":"function","name":"transferOwnership","inputs":[{"name":"newOwner","type":"address","internalType":"address"}],"outputs":[],"stateMutability":"nonpayable"},{"type":"event","name":"OwnershipTransferred","inputs":[{"name":"previousOwner","type":"address","indexed":true,"internalType":"address"},{"name":"newOwner","type":"address","indexed":true,"internalType":"address"}],"anonymous":false},{"type":"error","name":"NotHub","inputs":[]}],"bytecode":{"object":"0x60a06040523480156200001157600080fd5b506040516200123138038062001231833981016040819052620000349162000186565b6001600160a01b038316608052806200004d33620000a7565b6200005881620000a7565b50600380546001600160a01b0319166001600160a01b0384161790556200007f83620000f7565b5050600480546001600160a01b0319166001600160a01b0392909216919091179055620001d0565b600080546001600160a01b038381166001600160a01b0319831681178455604051919092169283917f8be0079c531659141344cd1fd0a4f28419497f9722a3daafe3b4186f6b6457e09190a35050565b6040516001600160a01b0382166024820152620001459060440160408051601f198184030181529190526020810180516001600160e01b0390811663161765e160e11b179091526200014816565b50565b80516a636f6e736f6c652e6c6f67602083016000808483855afa5050505050565b80516001600160a01b03811681146200018157600080fd5b919050565b6000806000606084860312156200019c57600080fd5b620001a78462000169565b9250620001b76020850162000169565b9150620001c76040850162000169565b90509250925092565b608051611037620001fa6000396000818161016b015281816102a8015261039601526110376000f3fe608060405234801561001057600080fd5b50600436106100a95760003560e01c80638da5cb5b116100715780638da5cb5b1461011b57806390ce6e0814610140578063977d5e3514610153578063a4c52b8614610166578063ce90d52e1461018d578063f2fde38b1461019557600080fd5b806301ffc9a7146100ae57806303ee438c146100d65780630b960220146100eb578063681591c1146100fe578063715018a614610113575b600080fd5b6100c16100bc366004610b44565b6101a8565b60405190151581526020015b60405180910390f35b6100de61020d565b6040516100cd9190610bc5565b6100de6100f9366004610bed565b61029b565b61011161010c366004610c99565b61035d565b005b610111610375565b6000546001600160a01b03165b6040516001600160a01b0390911681526020016100cd565b6100de61014e366004610d4a565b610389565b6100de610161366004610d86565b6107ae565b6101287f000000000000000000000000000000000000000000000000000000000000000081565b6100de61085c565b6101116101a3366004610da8565b6108ee565b60006001600160e01b0319821663136b0d8560e31b14806102075750604080516a4c454e535f4d4f44554c4560a81b6020808301919091528251600b818403018152602b90920190925280519101206001600160e01b03198381169116145b92915050565b6001805461021a90610dc5565b80601f016020809104026020016040519081016040528092919081815260200182805461024690610dc5565b80156102935780601f1061026857610100808354040283529160200191610293565b820191906000526020600020905b81548152906001019060200180831161027657829003601f168201915b505050505081565b6060336001600160a01b037f000000000000000000000000000000000000000000000000000000000000000016146102e6576040516313bd2e8360e31b815260040160405180910390fd5b60006102f483850185610c99565b60008881526002602090815260408083208a8452909152902090915061031a8282610e4e565b5083838080601f016020809104026020016040519081016040528093929190818152602001838380828437600092019190915250929a9950505050505050505050565b61036561096c565b60016103718282610e4e565b5050565b61037d61096c565b61038760006109c6565b565b6060336001600160a01b037f000000000000000000000000000000000000000000000000000000000000000016146103d4576040516313bd2e8360e31b815260040160405180910390fd5b6103de8235610a16565b600480546040516331a9108f60e11b81526000926001600160a01b0390921691636352211e91610415918735910190815260200190565b602060405180830381865afa158015610432573d6000803e3d6000fd5b505050506040513d601f19601f820116820180604052508101906104569190610f0e565b600480546040516331a9108f60e11b8152610411928101929092529192506000916001600160a01b031690636352211e90602401602060405180830381865afa1580156104a7573d6000803e3d6000fd5b505050506040513d601f19601f820116820180604052508101906104cb9190610f0e565b600480546040516347720ebb60e01b815287359281019290925261041160248301529192506000916001600160a01b0316906347720ebb90604401602060405180830381865afa158015610523573d6000803e3d6000fd5b505050506040513d601f19601f820116820180604052508101906105479190610f2b565b90506105746040518060400160405280600a8152602001691a5cd19bdb1b1bddd95960b21b815250610a5b565b61057d81610a9e565b6105ae6040518060400160405280601081526020016f383ab13634b1b0ba34b7b727bbb732b960811b815250610a5b565b6105b783610adf565b6105eb604051806040016040528060138152602001723a3930b739b0b1ba34b7b722bc32b1baba37b960691b815250610a5b565b6106036105fe60a0870160808801610da8565b610adf565b61063560405180604001604052806011815260200170383ab13634b1b0ba34b7b727bbb732b91960791b815250610a5b565b61063e82610adf565b843560009081526002602090815260408083208289013584529091528120805461066790610dc5565b80601f016020809104026020016040519081016040528092919081815260200182805461069390610dc5565b80156106e05780601f106106b5576101008083540402835291602001916106e0565b820191906000526020600020905b8154815290600101906020018083116106c357829003601f168201915b505050505090506000868061010001906106fa9190610f4d565b8101906107079190610c99565b90506000828260405160200161071e929190610f9b565b60408051601f198184030181529190526003549091506001600160a01b0316639c2a8d278261075360a08c0160808d01610da8565b6040518363ffffffff1660e01b8152600401610770929190610fd7565b600060405180830381600087803b15801561078a57600080fd5b505af115801561079e573d6000803e3d6000fd5b50929a9950505050505050505050565b600082815260026020908152604080832084845290915290208054606091906107d690610dc5565b80601f016020809104026020016040519081016040528092919081815260200182805461080290610dc5565b801561084f5780601f106108245761010080835404028352916020019161084f565b820191906000526020600020905b81548152906001019060200180831161083257829003601f168201915b5050505050905092915050565b60606001805461086b90610dc5565b80601f016020809104026020016040519081016040528092919081815260200182805461089790610dc5565b80156108e45780601f106108b9576101008083540402835291602001916108e4565b820191906000526020600020905b8154815290600101906020018083116108c757829003601f168201915b5050505050905090565b6108f661096c565b6001600160a01b0381166109605760405162461bcd60e51b815260206004820152602660248201527f4f776e61626c653a206e6577206f776e657220697320746865207a65726f206160448201526564647265737360d01b60648201526084015b60405180910390fd5b610969816109c6565b50565b6000546001600160a01b031633146103875760405162461bcd60e51b815260206004820181905260248201527f4f776e61626c653a2063616c6c6572206973206e6f7420746865206f776e65726044820152606401610957565b600080546001600160a01b038381166001600160a01b0319831681178455604051919092169283917f8be0079c531659141344cd1fd0a4f28419497f9722a3daafe3b4186f6b6457e09190a35050565b61096981604051602401610a2c91815260200190565b60408051601f198184030181529190526020810180516001600160e01b031663f5b1bba960e01b179052610b23565b61096981604051602401610a6f9190610bc5565b60408051601f198184030181529190526020810180516001600160e01b031663104c13eb60e21b179052610b23565b60405181151560248201526109699060440160408051601f198184030181529190526020810180516001600160e01b03166332458eed60e01b179052610b23565b6040516001600160a01b03821660248201526109699060440160408051601f198184030181529190526020810180516001600160e01b031663161765e160e11b1790525b80516a636f6e736f6c652e6c6f67602083016000808483855afa5050505050565b600060208284031215610b5657600080fd5b81356001600160e01b031981168114610b6e57600080fd5b9392505050565b60005b83811015610b90578181015183820152602001610b78565b50506000910152565b60008151808452610bb1816020860160208601610b75565b601f01601f19169290920160200192915050565b602081526000610b6e6020830184610b99565b6001600160a01b038116811461096957600080fd5b600080600080600060808688031215610c0557600080fd5b85359450602086013593506040860135610c1e81610bd8565b9250606086013567ffffffffffffffff80821115610c3b57600080fd5b818801915088601f830112610c4f57600080fd5b813581811115610c5e57600080fd5b896020828501011115610c7057600080fd5b9699959850939650602001949392505050565b634e487b7160e01b600052604160045260246000fd5b600060208284031215610cab57600080fd5b813567ffffffffffffffff80821115610cc357600080fd5b818401915084601f830112610cd757600080fd5b813581811115610ce957610ce9610c83565b604051601f8201601f19908116603f01168101908382118183101715610d1157610d11610c83565b81604052828152876020848701011115610d2a57600080fd5b826020860160208301376000928101602001929092525095945050505050565b600060208284031215610d5c57600080fd5b813567ffffffffffffffff811115610d7357600080fd5b82016101208185031215610b6e57600080fd5b60008060408385031215610d9957600080fd5b50508035926020909101359150565b600060208284031215610dba57600080fd5b8135610b6e81610bd8565b600181811c90821680610dd957607f821691505b602082108103610df957634e487b7160e01b600052602260045260246000fd5b50919050565b601f821115610e4957600081815260208120601f850160051c81016020861015610e265750805b601f850160051c820191505b81811015610e4557828155600101610e32565b5050505b505050565b815167ffffffffffffffff811115610e6857610e68610c83565b610e7c81610e768454610dc5565b84610dff565b602080601f831160018114610eb15760008415610e995750858301515b600019600386901b1c1916600185901b178555610e45565b600085815260208120601f198616915b82811015610ee057888601518255948401946001909101908401610ec1565b5085821015610efe5787850151600019600388901b60f8161c191681555b5050505050600190811b01905550565b600060208284031215610f2057600080fd5b8151610b6e81610bd8565b600060208284031215610f3d57600080fd5b81518015158114610b6e57600080fd5b6000808335601e19843603018112610f6457600080fd5b83018035915067ffffffffffffffff821115610f7f57600080fd5b602001915036819003821315610f9457600080fd5b9250929050565b60008351610fad818460208801610b75565b600160fd1b9083019081528351610fcb816001840160208801610b75565b01600101949350505050565b604081526000610fea6040830185610b99565b905060018060a01b0383166020830152939250505056fea26469706673582212203e000d1c057a3f8700185da9fd15c7bc15164026d0d86debabeaab3627b0378f64736f6c63430008140033","linkReferences":{}},"methodIdentifiers":{"HUB()":"a4c52b86","getModuleMetadataURI()":"ce90d52e","initMessages(uint256,uint256)":"977d5e35","initializePublicationAction(uint256,uint256,address,bytes)":"0b960220","metadataURI()":"03ee438c","owner()":"8da5cb5b","processPublicationAction((uint256,uint256,uint256,address,address,uint256[],uint256[],uint8[],bytes))":"90ce6e08","renounceOwnership()":"715018a6","setModuleMetadataURI(string)":"681591c1","supportsInterface(bytes4)":"01ffc9a7","transferOwnership(address)":"f2fde38b"},"id":33}