{"abi":[{"type":"function","name":"helloWorld","inputs":[{"name":"message","type":"string","internalType":"string"},{"name":"actor","type":"address","internalType":"address"}],"outputs":[],"stateMutability":"nonpayable"},{"type":"event","name":"Greet","inputs":[{"name":"message","type":"string","indexed":false,"internalType":"string"},{"name":"actor","type":"address","indexed":false,"internalType":"address"}],"anonymous":false}],"bytecode":{"object":"0x608060405234801561001057600080fd5b50610267806100206000396000f3fe608060405234801561001057600080fd5b506004361061002b5760003560e01c80639c2a8d2714610030575b600080fd5b61004361003e3660046100d1565b610045565b005b7f47e3e96897d7b829c47efd83980f4c07c788aebb1135f7822d64145dccf651438260405160200161007791906101b7565b60408051601f19818403018152908290526100939184906101ed565b60405180910390a15050565b634e487b7160e01b600052604160045260246000fd5b80356001600160a01b03811681146100cc57600080fd5b919050565b600080604083850312156100e457600080fd5b823567ffffffffffffffff808211156100fc57600080fd5b818501915085601f83011261011057600080fd5b8135818111156101225761012261009f565b604051601f8201601f19908116603f0116810190838211818310171561014a5761014a61009f565b8160405282815288602084870101111561016357600080fd5b82602086016020830137600060208483010152809650505050505061018a602084016100b5565b90509250929050565b60005b838110156101ae578181015183820152602001610196565b50506000910152565b6d02432b6363796102bb7b9363210960951b8152600082516101e081600e850160208701610193565b91909101600e0192915050565b604081526000835180604084015261020c816060850160208801610193565b6001600160a01b0393909316602083015250601f91909101601f19160160600191905056fea2646970667358221220d42cbdb8828fdfb27216d0ee095e7baa8e303884123281f665d120f9c7d86a6f64736f6c63430008140033","linkReferences":{}},"methodIdentifiers":{"helloWorld(string,address)":"9c2a8d27"},"id":34}